{
  "contractName": "CFD",
  "abi": [
    {
      "inputs": [
        {
          "internalType": "address",
          "name": "_makerMedianizer",
          "type": "address"
        },
        {
          "internalType": "address",
          "name": "_uniswapFactory",
          "type": "address"
        },
        {
          "internalType": "address",
          "name": "_daiToken",
          "type": "address"
        },
        {
          "internalType": "uint256",
          "name": "_leverage",
          "type": "uint256"
        },
        {
          "internalType": "uint256",
          "name": "_fee",
          "type": "uint256"
        },
        {
          "internalType": "uint256",
          "name": "_settlementDate",
          "type": "uint256"
        },
        {
          "internalType": "uint256",
          "name": "_version",
          "type": "uint256"
        }
      ],
      "payable": false,
      "stateMutability": "nonpayable",
      "type": "constructor"
    },
    {
      "anonymous": false,
      "inputs": [
        {
          "indexed": true,
          "internalType": "address",
          "name": "depositor",
          "type": "address"
        },
        {
          "indexed": true,
          "internalType": "address",
          "name": "cfd",
          "type": "address"
        },
        {
          "indexed": true,
          "internalType": "uint256",
          "name": "amount",
          "type": "uint256"
        },
        {
          "indexed": false,
          "internalType": "uint256",
          "name": "up2xUbtPoolEth",
          "type": "uint256"
        },
        {
          "indexed": false,
          "internalType": "uint256",
          "name": "down2xUbtPoolEth",
          "type": "uint256"
        },
        {
          "indexed": false,
          "internalType": "uint256",
          "name": "totalEthCollateral",
          "type": "uint256"
        }
      ],
      "name": "NeededEthCollateral",
      "type": "event"
    },
    {
      "anonymous": false,
      "inputs": [
        {
          "indexed": false,
          "internalType": "uint256",
          "name": "up2xUbtRate",
          "type": "uint256"
        },
        {
          "indexed": false,
          "internalType": "uint256",
          "name": "down2xUbtRate",
          "type": "uint256"
        }
      ],
      "name": "UpDown2xUbtRates",
      "type": "event"
    },
    {
      "constant": true,
      "inputs": [],
      "name": "daiPriceAtSettlement",
      "outputs": [
        {
          "internalType": "uint256",
          "name": "",
          "type": "uint256"
        }
      ],
      "payable": false,
      "stateMutability": "view",
      "type": "function"
    },
    {
      "constant": true,
      "inputs": [],
      "name": "daiToken",
      "outputs": [
        {
          "internalType": "address",
          "name": "",
          "type": "address"
        }
      ],
      "payable": false,
      "stateMutability": "view",
      "type": "function"
    },
    {
      "constant": true,
      "inputs": [],
      "name": "down2xUbt",
      "outputs": [
        {
          "internalType": "contract Down2xUbt",
          "name": "",
          "type": "address"
        }
      ],
      "payable": false,
      "stateMutability": "view",
      "type": "function"
    },
    {
      "constant": true,
      "inputs": [],
      "name": "down2xUbtRateAtSettlement",
      "outputs": [
        {
          "internalType": "uint256",
          "name": "",
          "type": "uint256"
        }
      ],
      "payable": false,
      "stateMutability": "view",
      "type": "function"
    },
    {
      "constant": true,
      "inputs": [],
      "name": "feeRate",
      "outputs": [
        {
          "internalType": "uint256",
          "name": "",
          "type": "uint256"
        }
      ],
      "payable": false,
      "stateMutability": "view",
      "type": "function"
    },
    {
      "constant": true,
      "inputs": [],
      "name": "inSettlementPeriod",
      "outputs": [
        {
          "internalType": "bool",
          "name": "",
          "type": "bool"
        }
      ],
      "payable": false,
      "stateMutability": "view",
      "type": "function"
    },
    {
      "constant": true,
      "inputs": [],
      "name": "leverage",
      "outputs": [
        {
          "internalType": "uint256",
          "name": "",
          "type": "uint256"
        }
      ],
      "payable": false,
      "stateMutability": "view",
      "type": "function"
    },
    {
      "constant": true,
      "inputs": [],
      "name": "makerMedianizer",
      "outputs": [
        {
          "internalType": "address",
          "name": "",
          "type": "address"
        }
      ],
      "payable": false,
      "stateMutability": "view",
      "type": "function"
    },
    {
      "constant": true,
      "inputs": [],
      "name": "settlementDate",
      "outputs": [
        {
          "internalType": "uint256",
          "name": "",
          "type": "uint256"
        }
      ],
      "payable": false,
      "stateMutability": "view",
      "type": "function"
    },
    {
      "constant": true,
      "inputs": [
        {
          "internalType": "address",
          "name": "",
          "type": "address"
        }
      ],
      "name": "stakes",
      "outputs": [
        {
          "internalType": "uint256",
          "name": "upLP",
          "type": "uint256"
        },
        {
          "internalType": "uint256",
          "name": "downLP",
          "type": "uint256"
        },
        {
          "internalType": "uint256",
          "name": "mintVolume",
          "type": "uint256"
        },
        {
          "internalType": "bool",
          "name": "liquidated",
          "type": "bool"
        }
      ],
      "payable": false,
      "stateMutability": "view",
      "type": "function"
    },
    {
      "constant": true,
      "inputs": [],
      "name": "totalMintVolumeInDai",
      "outputs": [
        {
          "internalType": "uint256",
          "name": "",
          "type": "uint256"
        }
      ],
      "payable": false,
      "stateMutability": "view",
      "type": "function"
    },
    {
      "constant": true,
      "inputs": [],
      "name": "uniswapDown2xUbtExchange",
      "outputs": [
        {
          "internalType": "contract IUniswapExchange",
          "name": "",
          "type": "address"
        }
      ],
      "payable": false,
      "stateMutability": "view",
      "type": "function"
    },
    {
      "constant": true,
      "inputs": [],
      "name": "uniswapFactory",
      "outputs": [
        {
          "internalType": "address",
          "name": "",
          "type": "address"
        }
      ],
      "payable": false,
      "stateMutability": "view",
      "type": "function"
    },
    {
      "constant": true,
      "inputs": [],
      "name": "uniswapUp2xUbtExchange",
      "outputs": [
        {
          "internalType": "contract IUniswapExchange",
          "name": "",
          "type": "address"
        }
      ],
      "payable": false,
      "stateMutability": "view",
      "type": "function"
    },
    {
      "constant": true,
      "inputs": [],
      "name": "up2xUbt",
      "outputs": [
        {
          "internalType": "contract Up2xUbt",
          "name": "",
          "type": "address"
        }
      ],
      "payable": false,
      "stateMutability": "view",
      "type": "function"
    },
    {
      "constant": true,
      "inputs": [],
      "name": "up2xUbtRateAtSettlement",
      "outputs": [
        {
          "internalType": "uint256",
          "name": "",
          "type": "uint256"
        }
      ],
      "payable": false,
      "stateMutability": "view",
      "type": "function"
    },
    {
      "constant": false,
      "inputs": [
        {
          "internalType": "uint256",
          "name": "_daiDeposit",
          "type": "uint256"
        }
      ],
      "name": "mint",
      "outputs": [],
      "payable": true,
      "stateMutability": "payable",
      "type": "function"
    },
    {
      "constant": false,
      "inputs": [
        {
          "internalType": "uint256",
          "name": "_daiDeposit",
          "type": "uint256"
        }
      ],
      "name": "getETHCollateralRequirements",
      "outputs": [
        {
          "internalType": "uint256",
          "name": "",
          "type": "uint256"
        },
        {
          "internalType": "uint256",
          "name": "",
          "type": "uint256"
        }
      ],
      "payable": false,
      "stateMutability": "nonpayable",
      "type": "function"
    },
    {
      "constant": false,
      "inputs": [],
      "name": "claimRewards",
      "outputs": [],
      "payable": false,
      "stateMutability": "nonpayable",
      "type": "function"
    },
    {
      "constant": false,
      "inputs": [
        {
          "internalType": "uint256",
          "name": "_redeemAmount",
          "type": "uint256"
        }
      ],
      "name": "redeem",
      "outputs": [],
      "payable": false,
      "stateMutability": "nonpayable",
      "type": "function"
    },
    {
      "constant": false,
      "inputs": [],
      "name": "redeemFinal",
      "outputs": [],
      "payable": false,
      "stateMutability": "nonpayable",
      "type": "function"
    },
    {
      "constant": false,
      "inputs": [
        {
          "internalType": "uint256",
          "name": "daiUsdPrice",
          "type": "uint256"
        }
      ],
      "name": "getCurrentDaiRates",
      "outputs": [
        {
          "internalType": "uint256",
          "name": "",
          "type": "uint256"
        },
        {
          "internalType": "uint256",
          "name": "",
          "type": "uint256"
        }
      ],
      "payable": false,
      "stateMutability": "nonpayable",
      "type": "function"
    },
    {
      "constant": true,
      "inputs": [],
      "name": "GetDaiPriceUSD",
      "outputs": [
        {
          "internalType": "uint256",
          "name": "relativePrice",
          "type": "uint256"
        }
      ],
      "payable": false,
      "stateMutability": "view",
      "type": "function"
    },
    {
      "constant": true,
      "inputs": [],
      "name": "GetETHUSDPriceFromMedianizer",
      "outputs": [
        {
          "internalType": "uint256",
          "name": "",
          "type": "uint256"
        }
      ],
      "payable": false,
      "stateMutability": "view",
      "type": "function"
    }
  ],
  "bytecode": "0x6080604052600a805460ff191690553480156200001b57600080fd5b506040516200473d3803806200473d833981810160405260e08110156200004157600080fd5b50805160208201516040808401516060850151608086015160a087015160c090970151600080546001600160a01b03808a166001600160a01b03199283161790925560018054838a1690831617905560028054928716929091169190911790556007839055600882905560098890559351959694959294919390928190620000c99062000447565b90815260405190819003602001906000f080158015620000ed573d6000803e3d6000fd5b50600380546001600160a01b0319166001600160a01b039290921691909117905560405181906200011e9062000455565b90815260405190819003602001906000f08015801562000142573d6000803e3d6000fd5b50600480546001600160a01b0319166001600160a01b0392831617815560015460035460408051630b2479c760e11b8152918516938201939093529151921691631648f38e916024808201926020929091908290030181600087803b158015620001ab57600080fd5b505af1158015620001c0573d6000803e3d6000fd5b505050506040513d6020811015620001d757600080fd5b5051600580546001600160a01b0319166001600160a01b039283161790556001546004805460408051630b2479c760e11b81529185169282019290925290519190921691631648f38e9160248083019260209291908290030181600087803b1580156200024357600080fd5b505af115801562000258573d6000803e3d6000fd5b505050506040513d60208110156200026f57600080fd5b5051600680546001600160a01b0319166001600160a01b039283161790556003546005546040805163095ea7b360e01b81529184166004830152600019602483015251919092169163095ea7b39160448083019260209291908290030181600087803b158015620002df57600080fd5b505af1158015620002f4573d6000803e3d6000fd5b505050506040513d60208110156200030b57600080fd5b50516200035f576040805162461bcd60e51b815260206004820152601a60248201527f417070726f76616c206f662075703278556274206661696c6564000000000000604482015290519081900360640190fd5b600480546006546040805163095ea7b360e01b81526001600160a01b039283169481019490945260001960248501525191169163095ea7b39160448083019260209291908290030181600087803b158015620003ba57600080fd5b505af1158015620003cf573d6000803e3d6000fd5b505050506040513d6020811015620003e657600080fd5b50516200043a576040805162461bcd60e51b815260206004820152601c60248201527f417070726f76616c206f6620646f776e3278556274206661696c656400000000604482015290519081900360640190fd5b5050505050505062000463565b6114778062001e4b83390190565b61147b80620032c283390190565b6119d880620004736000396000f3fe60806040526004361061014b5760003560e01c80638bdb2afa116100b6578063b3d06b621161006f578063b3d06b621461039f578063bd73f8e8146103b4578063be22f546146103c9578063db006a75146103de578063e92febb314610408578063ed2739661461041d5761014b565b80638bdb2afa14610304578063978bbdb91461031957806398b550761461032e578063a0712d6814610343578063a1ab476614610360578063a823d7a01461038a5761014b565b8063372500ab11610108578063372500ab14610244578063427b79111461025957806343ce8ce71461029c5780635d1c82d1146102b15780635e1fd65d146102da5780636baa3ee1146102ef5761014b565b80630c5fc2d91461015057806316934fc4146101775780631958d54a146101d25780631b7b033b1461020357806324a601e11461021a5780632c86d98e1461022f575b600080fd5b34801561015c57600080fd5b50610165610432565b60408051918252519081900360200190f35b34801561018357600080fd5b506101aa6004803603602081101561019a57600080fd5b50356001600160a01b0316610438565b6040805194855260208501939093528383019190915215156060830152519081900360800190f35b3480156101de57600080fd5b506101e7610462565b604080516001600160a01b039092168252519081900360200190f35b34801561020f57600080fd5b50610218610471565b005b34801561022657600080fd5b506101656106ac565b34801561023b57600080fd5b506101656106b2565b34801561025057600080fd5b506102186106b8565b34801561026557600080fd5b506102836004803603602081101561027c57600080fd5b5035610a53565b6040805192835260208301919091528051918290030190f35b3480156102a857600080fd5b506101e7610be6565b3480156102bd57600080fd5b506102c6610bf5565b604080519115158252519081900360200190f35b3480156102e657600080fd5b506101e7610bfe565b3480156102fb57600080fd5b506101e7610c0d565b34801561031057600080fd5b506101e7610c1c565b34801561032557600080fd5b50610165610c2b565b34801561033a57600080fd5b50610165610c31565b6102186004803603602081101561035957600080fd5b5035610cb1565b34801561036c57600080fd5b506102836004803603602081101561038357600080fd5b5035611222565b34801561039657600080fd5b50610165611316565b3480156103ab57600080fd5b5061016561131c565b3480156103c057600080fd5b50610165611451565b3480156103d557600080fd5b506101e7611457565b3480156103ea57600080fd5b506102186004803603602081101561040157600080fd5b5035611466565b34801561041457600080fd5b506101e76115f8565b34801561042957600080fd5b50610165611607565b600d5481565b600f6020526000908152604090208054600182015460028301546003909301549192909160ff1684565b6006546001600160a01b031681565b600a5460ff166104c8576040805162461bcd60e51b815260206004820152601c60248201527f4d75737420626520696e20736574746c656d656e7420706572696f6400000000604482015290519081900360640190fd5b600354604080516370a0823160e01b815233600482015290516000926001600160a01b0316916370a08231916024808301926020929190829003018186803b15801561051357600080fd5b505afa158015610527573d6000803e3d6000fd5b505050506040513d602081101561053d57600080fd5b505160048054604080516370a0823160e01b81523393810193909352519293506000926001600160a01b03909116916370a08231916024808301926020929190829003018186803b15801561059157600080fd5b505afa1580156105a5573d6000803e3d6000fd5b505050506040513d60208110156105bb57600080fd5b50516003546040805163079cc67960e41b81523360048201526024810186905290519293506001600160a01b03909116916379cc67909160448082019260009290919082900301818387803b15801561061357600080fd5b505af1158015610627573d6000803e3d6000fd5b5050600480546040805163079cc67960e41b8152339381019390935260248301869052516001600160a01b0390911693506379cc67909250604480830192600092919082900301818387803b15801561067f57600080fd5b505af1158015610693573d6000803e3d6000fd5b505050506106a8338383600c54600d5461160d565b5050565b600b5481565b60075481565b600a5460ff1661070f576040805162461bcd60e51b815260206004820152601c60248201527f4d75737420626520696e20736574746c656d656e7420706572696f6400000000604482015290519081900360640190fd5b61071761192f565b50336000908152600f602090815260409182902082516080810184528154815260018201549281019290925260028101549282018390526003015460ff1615156060820152901580159061076d57508060600151155b6107b7576040805162461bcd60e51b815260206004820152601660248201527526bab9ba1031329030903b30b634b21039ba30b5b2b960511b604482015290519081900360640190fd5b336000908152600f60205260408120600301805460ff19166001179055600854600e546107e99163ffffffff61170b16565b6002546040805163a9059cbb60e01b81523360048201526024810184905290519293506001600160a01b039091169163a9059cbb916044808201926020929091908290030181600087803b15801561084057600080fd5b505af1158015610854573d6000803e3d6000fd5b505050506040513d602081101561086a57600080fd5b50516108b5576040805162461bcd60e51b81526020600482015260156024820152744d757374207265636569766520746865206665657360581b604482015290519081900360640190fd5b600554825160408051637c45f8ad60e11b815260048101929092526001602483018190526044830152610e1042016064830152805160009384936001600160a01b039091169263f88bf15a9260848084019382900301818787803b15801561091c57600080fd5b505af1158015610930573d6000803e3d6000fd5b505050506040513d604081101561094657600080fd5b5080516020918201516006549287015160408051637c45f8ad60e11b815260048101929092526001602483018190526044830152610e1042016064830152805193965091945060009384936001600160a01b039091169263f88bf15a926084808201939182900301818787803b1580156109bf57600080fd5b505af11580156109d3573d6000803e3d6000fd5b505050506040513d60408110156109e957600080fd5b508051602090910151600c54600d54929450909250610a0e913391869185919061160d565b336108fc610a22868563ffffffff61172916565b6040518115909202916000818181858888f19350505050158015610a4a573d6000803e3d6000fd5b50505050505050565b600080670de0b6b3a76400008084118281610a7d57610a78838763ffffffff61178116565b610a8d565b610a8d868463ffffffff61178116565b90506000610aa66007548361170b90919063ffffffff16565b90506000610aba858363ffffffff61172916565b9050671bc16d674ec800008110610b2c57610ad588856117de565b7f47b36ee7ca82e8fc0ac73398ea852eeb1f6a99b96ecd5a342b6862d07941f7ad600c54600d54604051808381526020018281526020019250505060405180910390a1600c54600d54965096505050505050610be1565b6000610b46671bc16d674ec800008463ffffffff61178116565b90508415610b9857604080518381526020810183905281517f47b36ee7ca82e8fc0ac73398ea852eeb1f6a99b96ecd5a342b6862d07941f7ad929181900390910190a19096509450610be19350505050565b604080518281526020810184905281517f47b36ee7ca82e8fc0ac73398ea852eeb1f6a99b96ecd5a342b6862d07941f7ad929181900390910190a196509450610be19350505050565b915091565b6004546001600160a01b031681565b600a5460ff1681565b6003546001600160a01b031681565b6000546001600160a01b031681565b6001546001600160a01b031681565b60085481565b60008060009054906101000a90046001600160a01b03166001600160a01b03166357de26a46040518163ffffffff1660e01b815260040160206040518083038186803b158015610c8057600080fd5b505afa158015610c94573d6000803e3d6000fd5b505050506040513d6020811015610caa57600080fd5b5051905090565b600954421115610ce557600a805460ff19166001179055610cd061131c565b600b819055610cde90610a53565b600d55600c555b600a5460ff1615610d3d576040805162461bcd60e51b815260206004820181905260248201527f4d757374206e6f7420626520696e20736574746c656d656e7420706572696f64604482015290519081900360640190fd5b600254604080516323b872dd60e01b81523360048201523060248201526044810184905290516001600160a01b03909216916323b872dd916064808201926020929091908290030181600087803b158015610d9757600080fd5b505af1158015610dab573d6000803e3d6000fd5b505050506040513d6020811015610dc157600080fd5b5051610dfe5760405162461bcd60e51b815260040180806020018281038252602781526020018061197d6027913960400191505060405180910390fd5b600080610e0a83611222565b90925090506000610e21838363ffffffff61172916565b905080341015610e78576040805162461bcd60e51b815260206004820152601a60248201527f4346443a3a6572726f72207472616e73666572696e6720455448000000000000604482015290519081900360640190fd5b80341115610eb15760405133903483900380156108fc02916000818181858888f19350505050158015610eaf573d6000803e3d6000fd5b505b6003546001600160a01b03166340c10f1930610ed487600263ffffffff61182316565b6040518363ffffffff1660e01b815260040180836001600160a01b03166001600160a01b0316815260200182815260200192505050602060405180830381600087803b158015610f2357600080fd5b505af1158015610f37573d6000803e3d6000fd5b505050506040513d6020811015610f4d57600080fd5b50506004546001600160a01b03166340c10f1930610f7287600263ffffffff61182316565b6040518363ffffffff1660e01b815260040180836001600160a01b03166001600160a01b0316815260200182815260200192505050602060405180830381600087803b158015610fc157600080fd5b505af1158015610fd5573d6000803e3d6000fd5b505050506040513d6020811015610feb57600080fd5b50506005546000906001600160a01b031663422f104385600161101589600263ffffffff61182316565b61102742610e1063ffffffff61172916565b6040518563ffffffff1660e01b81526004018084815260200183815260200182815260200193505050506020604051808303818588803b15801561106a57600080fd5b505af115801561107e573d6000803e3d6000fd5b50505050506040513d602081101561109557600080fd5b50516006549091506000906001600160a01b031663422f10438560016110c28a600263ffffffff61182316565b42610e10016040518563ffffffff1660e01b81526004018084815260200183815260200182815260200193505050506020604051808303818588803b15801561110a57600080fd5b505af115801561111e573d6000803e3d6000fd5b50505050506040513d602081101561113557600080fd5b5051600e5490915061114d908763ffffffff61172916565b600e5560408051608081018252336000908152600f6020529190912054819061117c908563ffffffff61172916565b8152336000908152600f60209081526040909120600101549101906111a7908463ffffffff61172916565b8152336000908152600f60209081526040909120600201549101906111d2908963ffffffff61172916565b815260006020918201819052338152600f82526040908190208351815591830151600183015582015160028201556060909101516003909101805460ff1916911515919091179055505050505050565b6000808061123784600263ffffffff61182316565b90506000611243610c31565b9050600061124f61131c565b905060008061125d83610a53565b90925090506000611274838763ffffffff61170b16565b90506000611288838863ffffffff61170b16565b9050600061129c838863ffffffff61188a16565b905060006112b0838963ffffffff61188a16565b90508b30337f840fd3426dae4474bf5fcda3e7789d1344648df634777021b23083f4667ee8b085856112e8828263ffffffff61172916565b60408051938452602084019290925282820152519081900360600190a4909950975050505050505050915091565b600e5481565b600154600254604080516303795fb160e11b81526001600160a01b0392831660048201529051600093849316916306f2bf62916024808301926020929190829003018186803b15801561136e57600080fd5b505afa158015611382573d6000803e3d6000fd5b505050506040513d602081101561139857600080fd5b5051905060006113a6610c31565b90506000826001600160a01b031663cd7724c3620f42406040518263ffffffff1660e01b81526004018082815260200191505060206040518083038186803b1580156113f157600080fd5b505afa158015611405573d6000803e3d6000fd5b505050506040513d602081101561141b57600080fd5b5051905060006114368264e8d4a5100063ffffffff6118b316565b9050611448838263ffffffff61188a16565b94505050505090565b600c5481565b6002546001600160a01b031681565b60095442111561149a57600a805460ff1916600117905561148561131c565b600b81905561149390610a53565b600d55600c555b600a5460ff16156114f2576040805162461bcd60e51b815260206004820181905260248201527f4d757374206e6f7420626520696e20736574746c656d656e7420706572696f64604482015290519081900360640190fd5b6003546040805163079cc67960e41b81523360048201526024810184905290516001600160a01b03909216916379cc67909160448082019260009290919082900301818387803b15801561154557600080fd5b505af1158015611559573d6000803e3d6000fd5b5050600480546040805163079cc67960e41b8152339381019390935260248301869052516001600160a01b0390911693506379cc67909250604480830192600092919082900301818387803b1580156115b157600080fd5b505af11580156115c5573d6000803e3d6000fd5b5050505060006115d361131c565b90506000806115e183610a53565b915091506115f2338586858561160d565b50505050565b6005546001600160a01b031681565b60095481565b600061161f838663ffffffff61170b16565b90506000611633838663ffffffff61170b16565b90506000611647838363ffffffff61172916565b905060006116606008548361170b90919063ffffffff16565b6002549091506001600160a01b031663a9059cbb8a611685858563ffffffff61178116565b6040518363ffffffff1660e01b815260040180836001600160a01b03166001600160a01b0316815260200182815260200192505050602060405180830381600087803b1580156116d457600080fd5b505af11580156116e8573d6000803e3d6000fd5b505050506040513d60208110156116fe57600080fd5b5050505050505050505050565b60006117208383670de0b6b3a764000061190d565b90505b92915050565b81810182811015611723576040805162461bcd60e51b815260206004820152601d60248201527f537461626c654d6174683a206164646974696f6e206f766572666c6f77000000604482015290519081900360640190fd5b6000828211156117d8576040805162461bcd60e51b815260206004820181905260248201527f537461626c654d6174683a207375627472616374696f6e206f766572666c6f77604482015290519081900360640190fd5b50900390565b600a805460ff19166001179055600b82905560008082611808576000671bc16d674ec80000611814565b671bc16d674ec8000060005b600c91909155600d5550505050565b6000808211611879576040805162461bcd60e51b815260206004820152601c60248201527f537461626c654d6174683a206469766973696f6e206279207a65726f00000000604482015290519081900360640190fd5b81838161188257fe5b049392505050565b60008061189f84670de0b6b3a76400006118b3565b90506118ab8184611823565b949350505050565b6000826118c257506000611723565b50818102818382816118d057fe5b04146117235760405162461bcd60e51b815260040180806020018281038252602381526020018061195a6023913960400191505060405180910390fd5b60008061191a85856118b3565b90506119268184611823565b95945050505050565b6040518060800160405280600081526020016000815260200160008152602001600015158152509056fe537461626c654d6174683a206d756c7469706c69636174696f6e206f766572666c6f774346443a3a6572726f72207472616e73666572696e6720756e6465726c79696e67206173736574a265627a7a7231582093c8c1e0b2d0ace6aebe968b3f245a01bda63d117b1d2f90bb8639cf1d23ce5764736f6c6343000510003260806040523480156200001157600080fd5b506040516200147738038062001477833981810160405260208110156200003757600080fd5b50516040805180820182526008815267155c080c9e15589d60c21b60208281019182528351808501909452600784526615540c9615509560ca1b9084015281519192916012916200008c91600091906200022d565b508151620000a29060019060208501906200022d565b506002805460ff191660ff9290921691909117905550620000d79050620000c8620000e0565b6001600160e01b03620000e516565b600755620002cf565b335b90565b620001008160066200013760201b62000e7e1790919060201c565b6040516001600160a01b038216907f6ae172837ea30b801fbfcdd4108aa1d5bf8ff775444fd70256b44e6bf3dfc3f690600090a250565b6200014c82826001600160e01b03620001c416565b156200019f576040805162461bcd60e51b815260206004820152601f60248201527f526f6c65733a206163636f756e7420616c72656164792068617320726f6c6500604482015290519081900360640190fd5b6001600160a01b0316600090815260209190915260409020805460ff19166001179055565b60006001600160a01b0382166200020d5760405162461bcd60e51b8152600401808060200182810382526022815260200180620014556022913960400191505060405180910390fd5b506001600160a01b03166000908152602091909152604090205460ff1690565b828054600181600116156101000203166002900490600052602060002090601f016020900481019282601f106200027057805160ff1916838001178555620002a0565b82800160010185558215620002a0579182015b82811115620002a057825182559160200191906001019062000283565b50620002ae929150620002b2565b5090565b620000e291905b80821115620002ae5760008155600101620002b9565b61117680620002df6000396000f3fe608060405234801561001057600080fd5b50600436106101165760003560e01c806370a08231116100a257806398650275116100715780639865027514610345578063a457c2d71461034d578063a9059cbb14610379578063aa271e1a146103a5578063dd62ed3e146103cb57610116565b806370a08231146102c557806379cc6790146102eb57806395d89b4114610317578063983b2d561461031f57610116565b8063313ce567116100e9578063313ce56714610228578063395093511461024657806340c10f191461027257806342966c681461029e57806354fd4d50146102bd57610116565b806306fdde031461011b578063095ea7b31461019857806318160ddd146101d857806323b872dd146101f2575b600080fd5b6101236103f9565b6040805160208082528351818301528351919283929083019185019080838360005b8381101561015d578181015183820152602001610145565b50505050905090810190601f16801561018a5780820380516001836020036101000a031916815260200191505b509250505060405180910390f35b6101c4600480360360408110156101ae57600080fd5b506001600160a01b03813516906020013561048f565b604080519115158252519081900360200190f35b6101e06104ac565b60408051918252519081900360200190f35b6101c46004803603606081101561020857600080fd5b506001600160a01b038135811691602081013590911690604001356104b2565b61023061053f565b6040805160ff9092168252519081900360200190f35b6101c46004803603604081101561025c57600080fd5b506001600160a01b038135169060200135610548565b6101c46004803603604081101561028857600080fd5b506001600160a01b03813516906020013561059c565b6102bb600480360360208110156102b457600080fd5b50356105f3565b005b6101e0610607565b6101e0600480360360208110156102db57600080fd5b50356001600160a01b031661060d565b6102bb6004803603604081101561030157600080fd5b506001600160a01b038135169060200135610628565b610123610636565b6102bb6004803603602081101561033557600080fd5b50356001600160a01b0316610696565b6102bb6106e5565b6101c46004803603604081101561036357600080fd5b506001600160a01b0381351690602001356106f7565b6101c46004803603604081101561038f57600080fd5b506001600160a01b038135169060200135610765565b6101c4600480360360208110156103bb57600080fd5b50356001600160a01b0316610779565b6101e0600480360360408110156103e157600080fd5b506001600160a01b0381358116916020013516610792565b60008054604080516020601f60026000196101006001881615020190951694909404938401819004810282018101909252828152606093909290918301828280156104855780601f1061045a57610100808354040283529160200191610485565b820191906000526020600020905b81548152906001019060200180831161046857829003601f168201915b5050505050905090565b60006104a361049c6107bd565b84846107c1565b50600192915050565b60055490565b60006104bf8484846108ad565b610535846104cb6107bd565b61053085604051806060016040528060288152602001611045602891396001600160a01b038a166000908152600460205260408120906105096107bd565b6001600160a01b03168152602081019190915260400160002054919063ffffffff610a0b16565b6107c1565b5060019392505050565b60025460ff1690565b60006104a36105556107bd565b8461053085600460006105666107bd565b6001600160a01b03908116825260208083019390935260409182016000908120918c16815292529020549063ffffffff610aa216565b60006105ae6105a96107bd565b610779565b6105e95760405162461bcd60e51b8152600401808060200182810382526030815260200180610ff46030913960400191505060405180910390fd5b6104a38383610b03565b6106046105fe6107bd565b82610bf5565b50565b60075481565b6001600160a01b031660009081526003602052604090205490565b6106328282610cf1565b5050565b60018054604080516020601f600260001961010087891615020190951694909404938401819004810282018101909252828152606093909290918301828280156104855780601f1061045a57610100808354040283529160200191610485565b6106a16105a96107bd565b6106dc5760405162461bcd60e51b8152600401808060200182810382526030815260200180610ff46030913960400191505060405180910390fd5b61060481610d45565b6106f56106f06107bd565b610d8d565b565b60006104a36107046107bd565b846105308560405180606001604052806025815260200161111d602591396004600061072e6107bd565b6001600160a01b03908116825260208083019390935260409182016000908120918d1681529252902054919063ffffffff610a0b16565b60006104a36107726107bd565b84846108ad565b600061078c60068363ffffffff610dd516565b92915050565b6001600160a01b03918216600090815260046020908152604080832093909416825291909152205490565b3390565b6001600160a01b0383166108065760405162461bcd60e51b81526004018080602001828103825260248152602001806110f96024913960400191505060405180910390fd5b6001600160a01b03821661084b5760405162461bcd60e51b8152600401808060200182810382526022815260200180610fac6022913960400191505060405180910390fd5b6001600160a01b03808416600081815260046020908152604080832094871680845294825291829020859055815185815291517f8c5be1e5ebec7d5bd14f71427d1e84f3dd0314c0f7b2291e5b200ac8c7c3b9259281900390910190a3505050565b6001600160a01b0383166108f25760405162461bcd60e51b81526004018080602001828103825260258152602001806110d46025913960400191505060405180910390fd5b6001600160a01b0382166109375760405162461bcd60e51b8152600401808060200182810382526023815260200180610f676023913960400191505060405180910390fd5b61097a81604051806060016040528060268152602001610fce602691396001600160a01b038616600090815260036020526040902054919063ffffffff610a0b16565b6001600160a01b0380851660009081526003602052604080822093909355908416815220546109af908263ffffffff610aa216565b6001600160a01b0380841660008181526003602090815260409182902094909455805185815290519193928716927fddf252ad1be2c89b69c2b068fc378daa952ba7f163c4a11628f55a4df523b3ef92918290030190a3505050565b60008184841115610a9a5760405162461bcd60e51b81526004018080602001828103825283818151815260200191508051906020019080838360005b83811015610a5f578181015183820152602001610a47565b50505050905090810190601f168015610a8c5780820380516001836020036101000a031916815260200191505b509250505060405180910390fd5b505050900390565b600082820183811015610afc576040805162461bcd60e51b815260206004820152601b60248201527f536166654d6174683a206164646974696f6e206f766572666c6f770000000000604482015290519081900360640190fd5b9392505050565b6001600160a01b038216610b5e576040805162461bcd60e51b815260206004820152601f60248201527f45524332303a206d696e7420746f20746865207a65726f206164647265737300604482015290519081900360640190fd5b600554610b71908263ffffffff610aa216565b6005556001600160a01b038216600090815260036020526040902054610b9d908263ffffffff610aa216565b6001600160a01b03831660008181526003602090815260408083209490945583518581529351929391927fddf252ad1be2c89b69c2b068fc378daa952ba7f163c4a11628f55a4df523b3ef9281900390910190a35050565b6001600160a01b038216610c3a5760405162461bcd60e51b81526004018080602001828103825260218152602001806110b36021913960400191505060405180910390fd5b610c7d81604051806060016040528060228152602001610f8a602291396001600160a01b038516600090815260036020526040902054919063ffffffff610a0b16565b6001600160a01b038316600090815260036020526040902055600554610ca9908263ffffffff610e3c16565b6005556040805182815290516000916001600160a01b038516917fddf252ad1be2c89b69c2b068fc378daa952ba7f163c4a11628f55a4df523b3ef9181900360200190a35050565b610cfb8282610bf5565b61063282610d076107bd565b6105308460405180606001604052806024815260200161108f602491396001600160a01b0388166000908152600460205260408120906105096107bd565b610d5660068263ffffffff610e7e16565b6040516001600160a01b038216907f6ae172837ea30b801fbfcdd4108aa1d5bf8ff775444fd70256b44e6bf3dfc3f690600090a250565b610d9e60068263ffffffff610eff16565b6040516001600160a01b038216907fe94479a9f7e1952cc78f2d6baab678adc1b772d936c6583def489e524cb6669290600090a250565b60006001600160a01b038216610e1c5760405162461bcd60e51b815260040180806020018281038252602281526020018061106d6022913960400191505060405180910390fd5b506001600160a01b03166000908152602091909152604090205460ff1690565b6000610afc83836040518060400160405280601e81526020017f536166654d6174683a207375627472616374696f6e206f766572666c6f770000815250610a0b565b610e888282610dd5565b15610eda576040805162461bcd60e51b815260206004820152601f60248201527f526f6c65733a206163636f756e7420616c72656164792068617320726f6c6500604482015290519081900360640190fd5b6001600160a01b0316600090815260209190915260409020805460ff19166001179055565b610f098282610dd5565b610f445760405162461bcd60e51b81526004018080602001828103825260218152602001806110246021913960400191505060405180910390fd5b6001600160a01b0316600090815260209190915260409020805460ff1916905556fe45524332303a207472616e7366657220746f20746865207a65726f206164647265737345524332303a206275726e20616d6f756e7420657863656564732062616c616e636545524332303a20617070726f766520746f20746865207a65726f206164647265737345524332303a207472616e7366657220616d6f756e7420657863656564732062616c616e63654d696e746572526f6c653a2063616c6c657220646f6573206e6f74206861766520746865204d696e74657220726f6c65526f6c65733a206163636f756e7420646f6573206e6f74206861766520726f6c6545524332303a207472616e7366657220616d6f756e74206578636565647320616c6c6f77616e6365526f6c65733a206163636f756e7420697320746865207a65726f206164647265737345524332303a206275726e20616d6f756e74206578636565647320616c6c6f77616e636545524332303a206275726e2066726f6d20746865207a65726f206164647265737345524332303a207472616e736665722066726f6d20746865207a65726f206164647265737345524332303a20617070726f76652066726f6d20746865207a65726f206164647265737345524332303a2064656372656173656420616c6c6f77616e63652062656c6f77207a65726fa265627a7a72315820404daffaa339ac9ac669535a531570aee0a420fd629ad4b1020dd7b921b27b3764736f6c63430005100032526f6c65733a206163636f756e7420697320746865207a65726f206164647265737360806040523480156200001157600080fd5b506040516200147b3803806200147b833981810160405260208110156200003757600080fd5b5051604080518082018252600a815269111bdddb880c9e15589d60b21b6020828101918252835180850190945260098452681113d5d38c9615509560ba1b90840152815191929160129162000090916000919062000231565b508151620000a690600190602085019062000231565b506002805460ff191660ff9290921691909117905550620000db9050620000cc620000e4565b6001600160e01b03620000e916565b600755620002d3565b335b90565b620001048160066200013b60201b62000e7e1790919060201c565b6040516001600160a01b038216907f6ae172837ea30b801fbfcdd4108aa1d5bf8ff775444fd70256b44e6bf3dfc3f690600090a250565b6200015082826001600160e01b03620001c816565b15620001a3576040805162461bcd60e51b815260206004820152601f60248201527f526f6c65733a206163636f756e7420616c72656164792068617320726f6c6500604482015290519081900360640190fd5b6001600160a01b0316600090815260209190915260409020805460ff19166001179055565b60006001600160a01b038216620002115760405162461bcd60e51b8152600401808060200182810382526022815260200180620014596022913960400191505060405180910390fd5b506001600160a01b03166000908152602091909152604090205460ff1690565b828054600181600116156101000203166002900490600052602060002090601f016020900481019282601f106200027457805160ff1916838001178555620002a4565b82800160010185558215620002a4579182015b82811115620002a457825182559160200191906001019062000287565b50620002b2929150620002b6565b5090565b620000e691905b80821115620002b25760008155600101620002bd565b61117680620002e36000396000f3fe608060405234801561001057600080fd5b50600436106101165760003560e01c806370a08231116100a257806398650275116100715780639865027514610345578063a457c2d71461034d578063a9059cbb14610379578063aa271e1a146103a5578063dd62ed3e146103cb57610116565b806370a08231146102c557806379cc6790146102eb57806395d89b4114610317578063983b2d561461031f57610116565b8063313ce567116100e9578063313ce56714610228578063395093511461024657806340c10f191461027257806342966c681461029e57806354fd4d50146102bd57610116565b806306fdde031461011b578063095ea7b31461019857806318160ddd146101d857806323b872dd146101f2575b600080fd5b6101236103f9565b6040805160208082528351818301528351919283929083019185019080838360005b8381101561015d578181015183820152602001610145565b50505050905090810190601f16801561018a5780820380516001836020036101000a031916815260200191505b509250505060405180910390f35b6101c4600480360360408110156101ae57600080fd5b506001600160a01b03813516906020013561048f565b604080519115158252519081900360200190f35b6101e06104ac565b60408051918252519081900360200190f35b6101c46004803603606081101561020857600080fd5b506001600160a01b038135811691602081013590911690604001356104b2565b61023061053f565b6040805160ff9092168252519081900360200190f35b6101c46004803603604081101561025c57600080fd5b506001600160a01b038135169060200135610548565b6101c46004803603604081101561028857600080fd5b506001600160a01b03813516906020013561059c565b6102bb600480360360208110156102b457600080fd5b50356105f3565b005b6101e0610607565b6101e0600480360360208110156102db57600080fd5b50356001600160a01b031661060d565b6102bb6004803603604081101561030157600080fd5b506001600160a01b038135169060200135610628565b610123610636565b6102bb6004803603602081101561033557600080fd5b50356001600160a01b0316610696565b6102bb6106e5565b6101c46004803603604081101561036357600080fd5b506001600160a01b0381351690602001356106f7565b6101c46004803603604081101561038f57600080fd5b506001600160a01b038135169060200135610765565b6101c4600480360360208110156103bb57600080fd5b50356001600160a01b0316610779565b6101e0600480360360408110156103e157600080fd5b506001600160a01b0381358116916020013516610792565b60008054604080516020601f60026000196101006001881615020190951694909404938401819004810282018101909252828152606093909290918301828280156104855780601f1061045a57610100808354040283529160200191610485565b820191906000526020600020905b81548152906001019060200180831161046857829003601f168201915b5050505050905090565b60006104a361049c6107bd565b84846107c1565b50600192915050565b60055490565b60006104bf8484846108ad565b610535846104cb6107bd565b61053085604051806060016040528060288152602001611045602891396001600160a01b038a166000908152600460205260408120906105096107bd565b6001600160a01b03168152602081019190915260400160002054919063ffffffff610a0b16565b6107c1565b5060019392505050565b60025460ff1690565b60006104a36105556107bd565b8461053085600460006105666107bd565b6001600160a01b03908116825260208083019390935260409182016000908120918c16815292529020549063ffffffff610aa216565b60006105ae6105a96107bd565b610779565b6105e95760405162461bcd60e51b8152600401808060200182810382526030815260200180610ff46030913960400191505060405180910390fd5b6104a38383610b03565b6106046105fe6107bd565b82610bf5565b50565b60075481565b6001600160a01b031660009081526003602052604090205490565b6106328282610cf1565b5050565b60018054604080516020601f600260001961010087891615020190951694909404938401819004810282018101909252828152606093909290918301828280156104855780601f1061045a57610100808354040283529160200191610485565b6106a16105a96107bd565b6106dc5760405162461bcd60e51b8152600401808060200182810382526030815260200180610ff46030913960400191505060405180910390fd5b61060481610d45565b6106f56106f06107bd565b610d8d565b565b60006104a36107046107bd565b846105308560405180606001604052806025815260200161111d602591396004600061072e6107bd565b6001600160a01b03908116825260208083019390935260409182016000908120918d1681529252902054919063ffffffff610a0b16565b60006104a36107726107bd565b84846108ad565b600061078c60068363ffffffff610dd516565b92915050565b6001600160a01b03918216600090815260046020908152604080832093909416825291909152205490565b3390565b6001600160a01b0383166108065760405162461bcd60e51b81526004018080602001828103825260248152602001806110f96024913960400191505060405180910390fd5b6001600160a01b03821661084b5760405162461bcd60e51b8152600401808060200182810382526022815260200180610fac6022913960400191505060405180910390fd5b6001600160a01b03808416600081815260046020908152604080832094871680845294825291829020859055815185815291517f8c5be1e5ebec7d5bd14f71427d1e84f3dd0314c0f7b2291e5b200ac8c7c3b9259281900390910190a3505050565b6001600160a01b0383166108f25760405162461bcd60e51b81526004018080602001828103825260258152602001806110d46025913960400191505060405180910390fd5b6001600160a01b0382166109375760405162461bcd60e51b8152600401808060200182810382526023815260200180610f676023913960400191505060405180910390fd5b61097a81604051806060016040528060268152602001610fce602691396001600160a01b038616600090815260036020526040902054919063ffffffff610a0b16565b6001600160a01b0380851660009081526003602052604080822093909355908416815220546109af908263ffffffff610aa216565b6001600160a01b0380841660008181526003602090815260409182902094909455805185815290519193928716927fddf252ad1be2c89b69c2b068fc378daa952ba7f163c4a11628f55a4df523b3ef92918290030190a3505050565b60008184841115610a9a5760405162461bcd60e51b81526004018080602001828103825283818151815260200191508051906020019080838360005b83811015610a5f578181015183820152602001610a47565b50505050905090810190601f168015610a8c5780820380516001836020036101000a031916815260200191505b509250505060405180910390fd5b505050900390565b600082820183811015610afc576040805162461bcd60e51b815260206004820152601b60248201527f536166654d6174683a206164646974696f6e206f766572666c6f770000000000604482015290519081900360640190fd5b9392505050565b6001600160a01b038216610b5e576040805162461bcd60e51b815260206004820152601f60248201527f45524332303a206d696e7420746f20746865207a65726f206164647265737300604482015290519081900360640190fd5b600554610b71908263ffffffff610aa216565b6005556001600160a01b038216600090815260036020526040902054610b9d908263ffffffff610aa216565b6001600160a01b03831660008181526003602090815260408083209490945583518581529351929391927fddf252ad1be2c89b69c2b068fc378daa952ba7f163c4a11628f55a4df523b3ef9281900390910190a35050565b6001600160a01b038216610c3a5760405162461bcd60e51b81526004018080602001828103825260218152602001806110b36021913960400191505060405180910390fd5b610c7d81604051806060016040528060228152602001610f8a602291396001600160a01b038516600090815260036020526040902054919063ffffffff610a0b16565b6001600160a01b038316600090815260036020526040902055600554610ca9908263ffffffff610e3c16565b6005556040805182815290516000916001600160a01b038516917fddf252ad1be2c89b69c2b068fc378daa952ba7f163c4a11628f55a4df523b3ef9181900360200190a35050565b610cfb8282610bf5565b61063282610d076107bd565b6105308460405180606001604052806024815260200161108f602491396001600160a01b0388166000908152600460205260408120906105096107bd565b610d5660068263ffffffff610e7e16565b6040516001600160a01b038216907f6ae172837ea30b801fbfcdd4108aa1d5bf8ff775444fd70256b44e6bf3dfc3f690600090a250565b610d9e60068263ffffffff610eff16565b6040516001600160a01b038216907fe94479a9f7e1952cc78f2d6baab678adc1b772d936c6583def489e524cb6669290600090a250565b60006001600160a01b038216610e1c5760405162461bcd60e51b815260040180806020018281038252602281526020018061106d6022913960400191505060405180910390fd5b506001600160a01b03166000908152602091909152604090205460ff1690565b6000610afc83836040518060400160405280601e81526020017f536166654d6174683a207375627472616374696f6e206f766572666c6f770000815250610a0b565b610e888282610dd5565b15610eda576040805162461bcd60e51b815260206004820152601f60248201527f526f6c65733a206163636f756e7420616c72656164792068617320726f6c6500604482015290519081900360640190fd5b6001600160a01b0316600090815260209190915260409020805460ff19166001179055565b610f098282610dd5565b610f445760405162461bcd60e51b81526004018080602001828103825260218152602001806110246021913960400191505060405180910390fd5b6001600160a01b0316600090815260209190915260409020805460ff1916905556fe45524332303a207472616e7366657220746f20746865207a65726f206164647265737345524332303a206275726e20616d6f756e7420657863656564732062616c616e636545524332303a20617070726f766520746f20746865207a65726f206164647265737345524332303a207472616e7366657220616d6f756e7420657863656564732062616c616e63654d696e746572526f6c653a2063616c6c657220646f6573206e6f74206861766520746865204d696e74657220726f6c65526f6c65733a206163636f756e7420646f6573206e6f74206861766520726f6c6545524332303a207472616e7366657220616d6f756e74206578636565647320616c6c6f77616e6365526f6c65733a206163636f756e7420697320746865207a65726f206164647265737345524332303a206275726e20616d6f756e74206578636565647320616c6c6f77616e636545524332303a206275726e2066726f6d20746865207a65726f206164647265737345524332303a207472616e736665722066726f6d20746865207a65726f206164647265737345524332303a20617070726f76652066726f6d20746865207a65726f206164647265737345524332303a2064656372656173656420616c6c6f77616e63652062656c6f77207a65726fa265627a7a723158201c876e94b27509fdc033e323218c724d8973599baf672d87bfd58eb23aa7d24564736f6c63430005100032526f6c65733a206163636f756e7420697320746865207a65726f2061646472657373",
  "source": "pragma solidity ^0.5.16;\n\nimport \"openzeppelin-solidity/contracts/token/ERC20/IERC20.sol\";\nimport \"./interfaces/IUniswapFactory.sol\";\nimport \"./interfaces/IUniswapExchange.sol\";\nimport \"./interfaces/IMakerMedianizer.sol\";\nimport \"./tokens/Up2xUbt.sol\";\nimport \"./tokens/Down2xUbt.sol\";\nimport \"./StableMath.sol\";\n\n/**\n  * @title CFD - take a 20x leveraged position on the future price of DAI.. or provide\n  * liquidity to the market and earn staking rewards. Liquidation prices at 20x are 0.95<>1.05\n  * @author Daichotomy team\n  * @dev Check out all this sweet code!\n  */\ncontract CFD {\n    using StableMath for uint256;\n\n    /***************************************\n                  CONNECTIONS\n    ****************************************/\n\n    address public makerMedianizer;\n    address public uniswapFactory;\n    address public daiToken;\n\n    /***************************************\n                    CONFIG\n    ****************************************/\n\n    Up2xUbt public up2xUbt;\n    Down2xUbt public down2xUbt;\n    IUniswapExchange public uniswapUp2xUbtExchange;\n    IUniswapExchange public uniswapDown2xUbtExchange;\n\n    uint256 public leverage; // 1x leverage == 1e18\n    uint256 public feeRate; // 100% fee == 1e18, 0.3% fee == 3e15\n    uint256 public settlementDate; // In seconds\n\n    /***************************************\n              STAKING & SETTLEMENT\n    ****************************************/\n\n    bool public inSettlementPeriod = false;\n    uint256 public daiPriceAtSettlement; // $1 == 1e18\n    uint256 public up2xUbtRateAtSettlement; // 1:1 == 1e18\n    uint256 public down2xUbtRateAtSettlement; // 1:1 == 1e18\n\n    uint256 public totalMintVolumeInDai;\n\n    struct Stake {\n        uint256 upLP; // Total LP for the UP2XUBT pool\n        uint256 downLP; // Total LP for the UP2XUBT pool\n        uint256 mintVolume; // Total mint volume in DA units\n        bool liquidated; // Has this staker withdrawn his funds?\n    }\n\n    mapping(address => Stake) public stakes;\n\n    event UpDown2xUbtRates(\n        uint256 up2xUbtRate,\n        uint256 down2xUbtRate\n    );\n\n    event NeededEthCollateral(\n        address indexed depositor,\n        address indexed cfd,\n        uint256 indexed amount,\n        uint256 up2xUbtPoolEth,\n        uint256 down2xUbtPoolEth,\n        uint256 totalEthCollateral\n    );\n\n    /**\n     * @notice constructor\n     * @param _makerMedianizer maker medianizer address\n     * @param _uniswapFactory uniswap factory address\n     * @param _daiToken maker medianizer address\n     * @param _leverage leverage (1000000000000000x) (1x == 1e18)\n     * @param _fee payout fee (1% == 1e16)\n     * @param _settlementDate maker medianizer address\n     * @param _version which tranche are we on?\n     */\n    constructor(\n        address _makerMedianizer,\n        address _uniswapFactory,\n        address _daiToken,\n        uint256 _leverage,\n        uint256 _fee,\n        uint256 _settlementDate,\n        uint256 _version\n    ) public {\n        makerMedianizer = _makerMedianizer;\n        uniswapFactory = _uniswapFactory;\n        daiToken = _daiToken;\n\n        leverage = _leverage;\n        feeRate = _fee;\n        settlementDate = _settlementDate;\n\n        up2xUbt = new Up2xUbt(_version);\n        down2xUbt = new Down2xUbt(_version);\n\n        uniswapUp2xUbtExchange = IUniswapExchange(\n            IUniswapFactory(uniswapFactory).createExchange(address(up2xUbt))\n        );\n        uniswapDown2xUbtExchange = IUniswapExchange(\n            IUniswapFactory(uniswapFactory).createExchange(address(down2xUbt))\n        );\n\n        require(\n            up2xUbt.approve(address(uniswapUp2xUbtExchange), uint256(-1)),\n            \"Approval of up2xUbt failed\"\n        );\n        require(\n            down2xUbt.approve(address(uniswapDown2xUbtExchange), uint256(-1)),\n            \"Approval of down2xUbt failed\"\n        );\n    }\n\n    /***************************************\n                    MODIFIERS\n    ****************************************/\n\n\n    // veiw later\n\n    modifier notInSettlementPeriod() {\n        if (now > settlementDate) {\n            inSettlementPeriod = true;\n            daiPriceAtSettlement = GetDaiPriceUSD();\n            (\n                up2xUbtRateAtSettlement,\n                down2xUbtRateAtSettlement\n            ) = getCurrentDaiRates(daiPriceAtSettlement);\n        }\n        require(!inSettlementPeriod, \"Must not be in settlement period\");\n        _;\n    }\n\n    modifier onlyInSettlementPeriod() {\n        require(inSettlementPeriod, \"Must be in settlement period\");\n        _;\n    }\n\n    /***************************************\n              LIQUIDITY PROVIDERS\n    ****************************************/\n\n    /**\n     * @notice mint UP and DOWN 2xUbt tokens\n     * @param _daiDeposit amount of DAI to deposit\n     */\n    function mint(uint256 _daiDeposit) external payable notInSettlementPeriod {\n        // Step 1. Take the DAI\n        require(\n            IERC20(daiToken).transferFrom(\n                msg.sender,\n                address(this),\n                _daiDeposit\n            ),\n            \"CFD::error transfering underlying asset\"\n        );\n\n        // Step 2. Calculate the value of these tokens, and how much ETH that is\n        (uint256 up2xUbtEthUnits, uint256 down2xUbtEthUnits) = getETHCollateralRequirements(\n            _daiDeposit\n        );\n        uint256 totalETHCollateral = up2xUbtEthUnits.add(down2xUbtEthUnits);\n        require(msg.value >= totalETHCollateral, \"CFD::error transfering ETH\");\n        if (msg.value > totalETHCollateral) {\n            msg.sender.transfer(msg.value - totalETHCollateral);\n        }\n\n        // Step 3. Mint the up/down 2xUbt tokens\n        up2xUbt.mint(address(this), _daiDeposit.div(2));\n        down2xUbt.mint(address(this), _daiDeposit.div(2));\n\n        // Step 4. Contribute to Uniswap\n        uint256 upLP = uniswapUp2xUbtExchange.addLiquidity.value(up2xUbtEthUnits)(\n            1,\n            _daiDeposit.div(2),\n            now.add(3600)\n        );\n        uint256 downLP = uniswapDown2xUbtExchange.addLiquidity.value(\n            down2xUbtEthUnits\n        )(1, _daiDeposit.div(2), now + 3600);\n\n        // Step 5. Store the LP and log the mint volume\n        totalMintVolumeInDai = totalMintVolumeInDai.add(_daiDeposit);\n        stakes[msg.sender] = Stake({\n            upLP: stakes[msg.sender].upLP.add(upLP),\n            downLP: stakes[msg.sender].downLP.add(downLP),\n            mintVolume: stakes[msg.sender].mintVolume.add(_daiDeposit),\n            liquidated: false\n        });\n\n        // TODO - add a time element here to incentivise early stakers to provide liquidity\n        // This will affect the proportionate amount of rewards they receive at the end\n\n    }\n\n    /**\n     * @notice get the amount of ETH required to create a uniswap exchange\n     * @param _daiDeposit the total amount of underlying to deposit (UP/DOWN 2xUbt = _daiDeposit/2)\n     * @return the amount of ETH needed for UP2XUBT pool and DOWN2XUBT pool\n     */\n    function getETHCollateralRequirements(uint256 _daiDeposit)\n        public\n        returns (uint256, uint256)\n    {\n        uint256 individualDeposits = _daiDeposit.div(2);\n        // get ETH price, where $200 == 200e18\n        uint256 ethUsdPrice = GetETHUSDPriceFromMedianizer();\n        // get DAI price, where $1 == 1e18\n        uint256 daiPriceUsd = GetDaiPriceUSD();\n\n        // Rate 1:1 == 1e18, 1.2:1 == 12e17\n        (uint256 up2xUbtRate, uint256 down2xUbtRate) = getCurrentDaiRates(\n            daiPriceUsd\n        );\n        // e.g. (11e17 * 1e18) / 1e18 = 11e17\n        uint256 totalUp2xUbtValue = up2xUbtRate.mulTruncate(individualDeposits);\n        uint256 totalDown2xUbtValue = down2xUbtRate.mulTruncate(individualDeposits);\n\n        // ETH amount needed for the UP2XUBT pool\n        // e.g. (11e17 * 1e18) / 287e18 = 11e35 / 287e18 = 3e15 ETH\n        uint256 up2xUbtPoolEth = totalUp2xUbtValue.divPrecisely(ethUsdPrice);\n        uint256 down2xUbtPoolEth = totalDown2xUbtValue.divPrecisely(ethUsdPrice);\n\n        emit NeededEthCollateral(\n            msg.sender,\n            address(this),\n            _daiDeposit,\n            up2xUbtPoolEth,\n            down2xUbtPoolEth,\n            up2xUbtPoolEth.add(down2xUbtPoolEth)\n        );\n\n        return (up2xUbtPoolEth, down2xUbtPoolEth);\n    }\n\n    /**\n     * @notice Claims all rewards that a staker is eligable for\n     */\n    function claimRewards() external onlyInSettlementPeriod {\n        Stake memory stake = stakes[msg.sender];\n        require(\n            stake.mintVolume > 0 && !stake.liquidated,\n            \"Must be a valid staker\"\n        );\n        stakes[msg.sender].liquidated = true;\n\n        // 1. Claim Redemption Fees (proportionate to LP)\n        // e.g. (1e27 * 3e15)/1e18 = 3e42/1e18 = 3e24\n        uint256 totalRedemptionFees = totalMintVolumeInDai.mulTruncate(feeRate);\n        require(\n            IERC20(daiToken).transfer(msg.sender, totalRedemptionFees),\n            \"Must receive the fees\"\n        );\n\n        // 2. Redeem or withdraw LP\n        // 2.1. Get everything from Uniswap\n        (uint256 ethRedeemedUp, uint256 up2xUbtRedeemed) = uniswapUp2xUbtExchange\n            .removeLiquidity(stake.upLP, 1, 1, now + 3600);\n        (uint256 ethRedeemedDown, uint256 down2xUbtRedeemed) = uniswapDown2xUbtExchange\n            .removeLiquidity(stake.downLP, 1, 1, now + 3600);\n        // 2.2. Redeem all the tokens\n        _payout(\n            msg.sender,\n            up2xUbtRedeemed,\n            down2xUbtRedeemed,\n            up2xUbtRateAtSettlement,\n            down2xUbtRateAtSettlement\n        );\n        // 2.3. Transfer the eth to the user\n        msg.sender.transfer(ethRedeemedUp.add(ethRedeemedDown));\n    }\n\n    /***************************************\n                PUBLIC REDEPTION\n    ****************************************/\n\n    /**\n     * @notice redeem a pair of UP2XUBT and DOWN2XUBT\n     * @dev this function can be called before the settlement date, an equal amount of UPDAI and DOWNDAI should be deposited\n     * @param _redeemAmount Pair count where 1 real token == 1e18 base units\n     */\n    function redeem(uint256 _redeemAmount) public notInSettlementPeriod {\n        // burn UPDAI & DOWNDAI from redeemer\n        up2xUbt.burnFrom(msg.sender, _redeemAmount);\n        down2xUbt.burnFrom(msg.sender, _redeemAmount);\n\n        uint256 daiPriceUsd = GetDaiPriceUSD();\n        // Rate 1:1 == 1e18, 1.2:1 == 12e17\n        (uint256 up2xUbtRate, uint256 down2xUbtRate) = getCurrentDaiRates(\n            daiPriceUsd\n        );\n\n        // spread MONEY bitches\n        _payout(\n            msg.sender,\n            _redeemAmount,\n            _redeemAmount,\n            up2xUbtRate,\n            down2xUbtRate\n        );\n    }\n\n    /**\n     * @notice redeem UP2xUbt or DOWN2xUbt token\n     * @dev this function can only be called after contract settlement\n     */\n    function redeemFinal() public onlyInSettlementPeriod {\n        // get up2xUbt balance\n        uint256 up2xUbtRedeemAmount = up2xUbt.balanceOf(msg.sender);\n        // get down2xUbt balance\n        uint256 down2xUbtRedeemAmount = down2xUbt.balanceOf(msg.sender);\n\n        // burn up2xUbt\n        up2xUbt.burnFrom(msg.sender, up2xUbtRedeemAmount);\n        // burn down2xUbt\n        down2xUbt.burnFrom(msg.sender, down2xUbtRedeemAmount);\n\n        // spread MONEY bitches\n        _payout(\n            msg.sender,\n            up2xUbtRedeemAmount,\n            down2xUbtRedeemAmount,\n            up2xUbtRateAtSettlement,\n            down2xUbtRateAtSettlement\n        );\n    }\n\n    /***************************************\n              INTERNAL - PAYOUT\n    ****************************************/\n\n    /**\n     * @notice $ payout function $\n     * @dev can only be called internally\n     * @param redeemer redeemer address\n     * @param up2xUbtUnits units of Up2xUbt\n     * @param down2xUbtUnits units of Down2xUbt\n     * @param up2xUbtRate Rate of 2xUbt<>DAI\n     * @param down2xUbtRate units of 2xUbt<>DAI\n     */\n    function _payout(\n        address redeemer,\n        uint256 up2xUbtUnits,\n        uint256 down2xUbtUnits,\n        uint256 up2xUbtRate,\n        uint256 down2xUbtRate\n    ) internal {\n        // e.g. (12e17 * 100e18) / 1e18 = 12e37 / 1e18 = 120e18\n        uint256 convertedUp2xUbt = up2xUbtRate.mulTruncate(up2xUbtUnits);\n        // e.g. (8e17 * 100e18) / 1e18 = 8e37 / 1e18 = 80e18\n        uint256 convertedDown2xUbt = down2xUbtRate.mulTruncate(down2xUbtUnits);\n        // if feeRate = 3e15, (2e20*3e15)/1e18 = 6e17\n        uint256 totalDaiPayout = convertedUp2xUbt.add(convertedDown2xUbt);\n        uint256 fee = totalDaiPayout.mulTruncate(feeRate);\n        // Pay the moola\n        IERC20(daiToken).transfer(redeemer, totalDaiPayout.sub(fee));\n    }\n\n    /***************************************\n              INTERNAL - SETTLE CONTRACT\n    ****************************************/\n\n    /**\n     * @notice settle CFD\n     * @param daiUsdPrice Dai price in USD where $1 == 1e18\n     */\n    function _settleContract(uint256 daiUsdPrice, bool priceIsPositive) internal {\n        inSettlementPeriod = true;\n        daiPriceAtSettlement = daiUsdPrice;\n\n        // If Price is positive, Up wins and is worth 2:1, where Down is worth 0:1\n        (uint256 finalUp2xUbtRate, uint256 finalDown2xUbtRate) = priceIsPositive\n            ? (uint256(2e18), uint256(0))\n            : (uint256(0), uint256(2e18));\n        up2xUbtRateAtSettlement = finalUp2xUbtRate;\n        down2xUbtRateAtSettlement = finalDown2xUbtRate;\n    }\n\n    /***************************************\n                  PRICE HELPERS\n    ****************************************/\n\n    /**\n     * @notice Based on the price of DAI, what are the current exchange rates for up2xUbt and down2xUbt?\n     * @param daiUsdPrice Dai price in USD where $1 == 1e18\n     * @return up2xUbtRate where 1:1 == 1e18\n     * @return down2xUbtRate where 1:1 == 1e18\n     */\n    function getCurrentDaiRates(uint256 daiUsdPrice)\n        public\n        returns (uint256, uint256)\n    {\n        // (1 + ((DaiPriceFeed-1) *  Leverage))\n        // Given that price is reflected absolutely on both sides.. then\n        // (1 + (delta * leverage)), to find the up multiplier\n        uint256 one = 1e18;\n        bool priceIsPositive = daiUsdPrice > one;\n        // Get price delta, e.g. if daiUsdPrice == 1007e15, delta == 7e15\n        uint256 delta = priceIsPositive\n            ? daiUsdPrice.sub(one)\n            : one.sub(daiUsdPrice);\n        // Consider 20x leverage == 20e18 == 2e19, then\n        // e.g. 7e15 * 2e19 == 14e34, then truncate to 4e16\n        uint256 deltaWithLeverage = delta.mulTruncate(leverage);\n        // e.g. 1e18 + 4e16 = 104e16\n        uint256 winRate = one.add(deltaWithLeverage);\n        // If the price has hit the roof, settle the contract\n        if (winRate >= uint256(2e18)) {\n            _settleContract(daiUsdPrice, priceIsPositive);\n\n            emit UpDown2xUbtRates(up2xUbtRateAtSettlement, down2xUbtRateAtSettlement);\n\n            return (up2xUbtRateAtSettlement, down2xUbtRateAtSettlement);\n        }\n        else {\n            // e.g. 1e18 - 2e17 = 8e17\n            uint256 loseRate = (uint256(2e18)).sub(deltaWithLeverage);\n            // If price is positive, up2xUbtRate should be better :)\n            if(priceIsPositive) {\n                emit UpDown2xUbtRates(winRate, loseRate);\n\n                return (winRate, loseRate);\n            }\n            else {\n                emit UpDown2xUbtRates(loseRate, winRate);\n\n                return (loseRate, winRate);\n            }\n        }\n    }\n\n    /**\n     * @notice get DAI price in USD\n     * @dev this function get the DAI/USD price by getting the price of ETH/USD from Maker medianizer and dividing it by the price of ETH/DAI from Uniswap.\n     * @return relativePrice of DAI with regards to USD peg, where 1:1 == 1e18\n     */\n    function GetDaiPriceUSD() public view returns (uint256 relativePrice) {\n        address uniswapExchangeAddress = IUniswapFactory(uniswapFactory)\n            .getExchange(daiToken);\n\n        // ethUsdPrice, where $1 == 1e18\n        uint256 ethUsdPrice = GetETHUSDPriceFromMedianizer();\n        // ethDaiPrice, where 1:1 == 1e8. Using a single wei here means 0 slippage and allows pricing from low liq pool\n        // extrapolate to base 1e18 in order to do calcs\n        uint256 ethDaiPriceSimple = IUniswapExchange(uniswapExchangeAddress)\n            .getEthToTokenInputPrice(1 * 10**6);\n        uint256 ethDaiPriceExact = ethDaiPriceSimple.mul(10**12);\n\n        return ethUsdPrice.divPrecisely(ethDaiPriceExact);\n    }\n\n    /**\n     * @notice Parses the bytes32 price from Makers Medianizer into uint\n     * @return uint256 Medianised price where $1 == 1e18\n     */\n    function GetETHUSDPriceFromMedianizer() public view returns (uint256) {\n        return uint256(IMakerMedianizer(makerMedianizer).read());\n    }\n}",
  "sourcePath": "/Users/b4uwallet/Downloads/2XUBT/contracts/CFD.sol",
  "compiler": {
    "name": "solc",
    "version": "0.5.16+commit.9c3226ce.Emscripten.clang"
  },
  "schemaVersion": "3.4.2",
  "updatedAt": "2021-08-25T05:00:38.272Z",
  "devdoc": {
    "author": "Daichotomy team",
    "details": "Check out all this sweet code!",
    "methods": {
      "GetDaiPriceUSD()": {
        "details": "this function get the DAI/USD price by getting the price of ETH/USD from Maker medianizer and dividing it by the price of ETH/DAI from Uniswap.",
        "return": "relativePrice of DAI with regards to USD peg, where 1:1 == 1e18"
      },
      "GetETHUSDPriceFromMedianizer()": {
        "return": "uint256 Medianised price where $1 == 1e18"
      },
      "constructor": {
        "params": {
          "_daiToken": "maker medianizer address",
          "_fee": "payout fee (1% == 1e16)",
          "_leverage": "leverage (1000000000000000x) (1x == 1e18)",
          "_makerMedianizer": "maker medianizer address",
          "_settlementDate": "maker medianizer address",
          "_uniswapFactory": "uniswap factory address",
          "_version": "which tranche are we on?"
        }
      },
      "getCurrentDaiRates(uint256)": {
        "params": {
          "daiUsdPrice": "Dai price in USD where $1 == 1e18"
        },
        "return": "up2xUbtRate where 1:1 == 1e18down2xUbtRate where 1:1 == 1e18"
      },
      "getETHCollateralRequirements(uint256)": {
        "params": {
          "_daiDeposit": "the total amount of underlying to deposit (UP/DOWN 2xUbt = _daiDeposit/2)"
        },
        "return": "the amount of ETH needed for UP2XUBT pool and DOWN2XUBT pool"
      },
      "mint(uint256)": {
        "params": {
          "_daiDeposit": "amount of DAI to deposit"
        }
      },
      "redeem(uint256)": {
        "details": "this function can be called before the settlement date, an equal amount of UPDAI and DOWNDAI should be deposited",
        "params": {
          "_redeemAmount": "Pair count where 1 real token == 1e18 base units"
        }
      },
      "redeemFinal()": {
        "details": "this function can only be called after contract settlement"
      }
    },
    "title": "CFD - take a 20x leveraged position on the future price of DAI.. or provide liquidity to the market and earn staking rewards. Liquidation prices at 20x are 0.95<>1.05"
  },
  "userdoc": {
    "methods": {
      "GetDaiPriceUSD()": {
        "notice": "get DAI price in USD"
      },
      "GetETHUSDPriceFromMedianizer()": {
        "notice": "Parses the bytes32 price from Makers Medianizer into uint"
      },
      "claimRewards()": {
        "notice": "Claims all rewards that a staker is eligable for"
      },
      "constructor": "constructor",
      "getCurrentDaiRates(uint256)": {
        "notice": "Based on the price of DAI, what are the current exchange rates for up2xUbt and down2xUbt?"
      },
      "getETHCollateralRequirements(uint256)": {
        "notice": "get the amount of ETH required to create a uniswap exchange"
      },
      "mint(uint256)": {
        "notice": "mint UP and DOWN 2xUbt tokens"
      },
      "redeem(uint256)": {
        "notice": "redeem a pair of UP2XUBT and DOWN2XUBT"
      },
      "redeemFinal()": {
        "notice": "redeem UP2xUbt or DOWN2xUbt token"
      }
    }
  }
}